:020000040800F2
:1000000008150020D5000008E11600085D1600085C
:1000100000000000000000000000000000000000E0
:10002000000000000000000000000000B31A0008FB
:100030000000000000000000B11A0008B51A000816
:100040000501000800000000050100080501000886
:100050000501000805010008050100080501000868
:100060000000000005010008050100080501000866
:100070000501000805010008050100080000000056
:100080000501000800000000000000000501000854
:100090000000000005010008050100080501000836
:1000A0000000000005010008000000000501000834
:1000B00005010008000000000000000035280008CD
:1000C0000348854600F048F80048004781280008AA
:1000D000081500200C4880F308880C480168090EB8
:1000E0000B4A914205D10B480B4901600B480C4962
:1000F00001600C4880470C480047FEE7FEE7FEE73A
:10010000FEE7FEE7FEE700000815002004000000FF
:100110001F00000018100240010000000000014014
:1001200000000000391B0008C100000830B50B4674
:10013000014600202022012409E00D46D5409D42C1
:1001400005D31D469540491B254695404019154647
:10015000521E002DF1DC30BD064C0125064E05E097
:10016000E36807CC2B430C3C98471034B442F7D3D8
:10017000FFF7AAFF402900086029000870B58C1815
:100180000578401C6B075B0F01D10378401C2A11D6
:1001900006D10278401C03E006780E70401C491C12
:1001A0005B1EF9D12B0705D40023521E0DD40B7012
:1001B000491CFAE70378401CCB1A921C03E01D7817
:1001C0000D70491C5B1C521EF9D5A142D8D30020EA
:1001D00070BD0020704700207047000010B500225D
:1001E0000449054801F0C3FD0449034801F0B5FD89
:1001F000002010BD200D0020D4010020380900206F
:1002000010B5044602F0A2F92146044801F0A5FD0C
:10021000024801F07CFD002010BD0000D401002048
:100220000A4610B508498969FF31FF310231496931
:10023000002901D0012010BD0146044801F097FDBE
:10024000024801F0D9FD10BDD4030020D4010020E4
:10025000F8B500238DE001249C40A44622407DD0C7
:100260004C68022C01D0122C0CD1DC08A4002718F9
:100270003C6A5D07ED0E0F26AE40B4430E69AE40FA
:1002800026433E6205685E000324B4400F79A5430F
:10029000BF07BF0FB7402F4307604D68012D05D042
:1002A000022D03D0112D01D0122D0ED18568CF68FB
:1002B000A543B7402F43876047686546AF430D7934
:1002C000ED06ED0F9D403D434560C568A5438C6834
:1002D000B4402C43C4604C68E40049D5284CA5695F
:1002E00001263543A561A4699D0834400094254C3E
:1002F000AD002F19BC689D072E0F0F25B540AC43EC
:100300000925ED06A84201D100250FE01E4DA842A7
:1003100001D101250AE01D4DA84201D1022505E0C9
:100320001B4DA84201D1032500E00525B54025431A
:10033000BD60184C25684E689543F60300D51543FB
:10034000256065684E689543B60300D51543656022
:10035000A5684E689543F60202D500E008E0154313
:10036000A560E5684E689543B60200D51543E56083
:100370005B1C0A681446DC4000D06CE7F8BD000046
:10038000001002400000014000040048000800483E
:10039000000C004800040140002A01D08161704730
:1003A00081627047014800687047000050000020DB
:1003B00002480168491C016070470000500000209D
:1003C00010B506480168102211430160002000F0BA
:1003D00007F800F017F8002010BD000000200240D0
:1003E00010B5044600F0A0FE7D21C900FFF79EFE77
:1003F00001F018F900222146501E00F037F80020C5
:1004000010BD000008B512488169012211438161C5
:10041000816911400091C26901040A43C261C06947
:100420000022084000901146501F00F01FF80022E3
:100430001146901E00F01AF800221146501E00F0DE
:1004400015F80448016810221143016008BD00003E
:100450000010024000000140C106C90E0120884082
:10046000014908607047000000E100E010B501F0AC
:1004700039F910BD10B50C0606D54906490E1C24E5
:1004800061430818283004E01C2461430818FF3039
:10049000093099B2002A06D001228272C180190C5B
:1004A0000181002010BD002282728180F9E71C22A8
:1004B0004A43121810B5FF30FF300230926BC0690A
:1004C00001F047FE10BD1C224A43121810B5FF3040
:1004D000FF32FF30013202309269C06901F094FEB0
:1004E00010BD0000F0B54A06520E13461C256A43A3
:1004F000CC091218002C01D0283201E0FF32093259
:1005000004461370C909FF345170E134217A01297E
:100510003DD001212172957A494B002D49495578EA
:1005200037D0002D05681678AC465BD0B600AD5BC1
:100530006F0404D5444F0D403D436746BD530568E5
:100540001678AC46B600AD5B6F0605D53C4F0D4046
:1005500040373D436746BD5315780668AF00F55BED
:100560000D4039490D43F553364F117830373D4032
:10057000066889001D4375521178334A0068890066
:10058000F13A15401D43455200202072F0BD022073
:10059000F0BD002D05681678AC4610D0B600AD5BF6
:1005A0006F0605D50D40264940310D4361468D53F8
:1005B00005681078234A8100685A30320EE0B60090
:1005C000AD5B6F0404D50D401F490D4361468D534B
:1005D000056810781C4A8100685AF13A10401843A7
:1005E0006852D1E7B600AD5B6F0404D5164F0D40DD
:1005F0003D436746BD5305681678AC46B600AD5B13
:100600006F0605D50E4F0D4040373D436746BD533D
:1006100015780768AE00BD5B0D40094940310D43B8
:10062000BD53094F1678F13F3D400168B6001D43A8
:100630008D531178034A890000683032A1E7000029
:10064000808000008F8F000080C00000F0B54B0656
:10065000CA095B0E002A04D01C225A431218283201
:1006600004E01C224A431218FF320932002494701D
:1006700013700346C909FF335170E133197A012918
:100680001AD00121197251781A4C00291178066884
:1006900014D08D00715B4F0603D52140164C2143C9
:1006A0007153117800688A00124C815A303421400D
:1006B00010246140202414E00220F0BD8D00715B05
:1006C0004F0403D521400D4C21437153117800682C
:1006D0008A000A4C815AF13C2140012424036140E4
:1006E00064006140044C403C214381520020187258
:1006F000F0BD00008F8F0000C080000080C00000AF
:100700004906490E1C2251430818FF300130008C65
:1007100080B27047F0B54D066D0E2E461C24654321
:10072000CF092C18002F01D0283401E0FF34093400
:100730002670C90961700146FF31E260E131E37062
:100740008C46097A01290DD0012261460A72E278AD
:100750009349002A08D0012A20D0022A0DD0032A6A
:1007600025D111E00220F0BD237802689B00D55A04
:100770000D40FF35FF35023504E0237802689B0009
:10078000D55A0D40D55212E02278036892009D5A46
:100790000D40032149026918995208E02378026844
:1007A0009B00D55A0D40012189026918D152267843
:1007B0000768B5007B5B7B497B4A0B40134333439F
:1007C0007B53A57A002D53D02578784E0B400768CF
:1007D000AD0033437B53E38850265D0803686D000A
:1007E000F65AF6182378DF0001239B02FB18F55216
:1007F000238950265D0803686D00F65AF6182378A1
:10080000DF005311FB18F55263780768002B23783B
:1008100075D09D007B5B5E0403D5654E0B40334372
:100820007B53237807689D007B5B5E0604D55E4E94
:100830000B40403633437B53237805689E00AB5B07
:100840000B405B490B43AB53564E21783036334057
:100850000568890013436B522178554C0068890064
:10086000F13C234013434352002061460872F0BD1F
:100870006378002BA3881FD05D0803685026F65AC2
:100880006D00F6182378DF0001239B02FB18F55258
:10089000237807689D007B5B5E0604D50B404249C8
:1008A00040310B437B53016820783E4C8300C85A8B
:1008B00030342040202440E05D0803685026F65A7A
:1008C0006D00F6182378DF003A4BFB18F5520368E9
:1008D0005025ED5A374EEB182578B61CED00AD19B2
:1008E0005E19E3683E2B0BD9DD022D0CDB0601D12E
:1008F0006D1EADB2AB020125ED032B4307E020E0F6
:10090000DD032D0CDB0701D06D1CADB2AB023380D3
:10091000237807689D007B5B5E0403D50B40244968
:100920000B437B5301682078214C8300C85AF13C6B
:100930002040012424036040640060401043C852FA
:1009400092E79D007B5B5E0403D5194E0B40334359
:100950007B53237807689D007B5B5E0604D5124EAF
:100960000B40403633437B53237805689E00AB5BD6
:100970000B400D4940310B43AB530D4E2178F13EF6
:1009800033400126360373407600734005688900C2
:1009900013436B522178034C89000068303460E7C0
:1009A0008F8900008F8F0000808000008081000010
:1009B00080C0000004040000F0B54D066D0E1C243C
:1009C0006C432418FF340934636122610022A26160
:1009D00062702570E5681E46AB4201D92B46F21ABB
:1009E0006261A67A49060122890DD203002E2F4D9D
:1009F00006680CD05027BF5BBE192F1FC919761887
:100A00003E2B15D9D902090CDF060CD00DE050277A
:100A1000BF5B4919BE19751820E08902114300E037
:100A20008902298032E0491E89B28902114306E019
:100A3000D903090CDF0701D0491C89B28902318032
:100A40006178002902D0012918D01FE001685026E2
:100A5000765A71182678F60075194D193E2B06D96D
:100A6000D902090CDB06D8D1491E89B2D5E7D903D2
:100A7000090CDA07D4D0491C89B2D1E701685022A9
:100A8000525A51182278D20052198B52016820789C
:100A9000074B8200885A184001231B0358405B0013
:100AA0005840044B184388520020F0BD0604000053
:100AB0008FBF000080800000F0B50246FF32E132B7
:100AC000137A012B0BD001244F06CB097F0E147231
:100AD000002B06D01C237B431B18283306E0022082
:100AE000F0BD1C234B431B18FF3309339C701F7050
:100AF000CE095E70012424031025114B002F0BD06A
:100B00004906C90D002E10D004680E4E605A3040C0
:100B100068401843605210E001680B4E088830406E
:100B2000604068401843088007E00568064E685A30
:100B3000303E304060401843685200201072F0BDD3
:100B400080800000BF8F0000BFBF0000F0B50646E8
:100B50001D464806400E1C2343439C19E563A263CF
:100B6000002222640123283463702070E0682B4641
:100B7000854203D90546181A606100E06261A07AD7
:100B80002A4F002810D0227830689200825C4906F3
:100B90005206890D002A16DA5022125A10183A1DF0
:100BA00089184552228914E0ABB2A28821693068C5
:100BB00000F06BFF30685021095A08182178C900ED
:100BC000C919455220E05022125A1018C91945522D
:100BD000E288ABB22169306800F057FF61781448B1
:100BE000002902D0012907D00EE0217832688B005D
:100BF000D15A01400F4805E0217832688B00D15A64
:100C000001400D480143D152207831688200084BE1
:100C1000885A303318401023584020235840054B41
:100C2000403B184388520020F0BD00000204000041
:100C30008F8F0000C080000080C0000070B50446A7
:100C4000006840308088C00B02D0204600F06CFD68
:100C500020684030818849050AD58188334A11408F
:100C60008180204600F0E6F80021204600F00CF9D3
:100C7000206840308188490403D581882C4A11407E
:100C80008180206840308188890403D58188294A81
:100C9000114081802068403081880425C9040029E2
:100CA00010DA0188A9430180BD202168000240318B
:100CB0000880204600F0CAF82068403081881E4A2B
:100CC00011408180206840308188090517D58188CE
:100CD0001A4A11408180206840300188082211435F
:100CE000018020684030018829430180206840301D
:100CF0008088C043C00402D5204600F0EFF8206889
:100D000040308188890506D581880D4A114081804F
:100D1000204600F0B1F8206840308188C90503D52D
:100D20008188084A1140818070BD0000FFFB0000EF
:100D3000FFBF0000FFDF0000FFEF0000FFF7000033
:100D4000FFFD0000FFFE0000F8B500270446002864
:100D500007D02646FF36E136707A0025002802D0FB
:100D600005E00120F8BD3572204600F03BF8032075
:100D7000707201210BE01C207843021910462030CC
:100D800041720772C572556395637F1CD5636068B5
:100D9000B842F0D800200BE01C2242431219FF3267
:100DA000013255721072D57255619561401CD56142
:100DB00062688242F0D8206840300180206840306C
:100DC0000580206840308580206840300582BF2043
:100DD0002268000240321080203425717172002098
:100DE000F8BD000038B5044600680F49884219D1A3
:100DF0000E48C2690121C9050A43C261C0690022C7
:100E00000840009011461F20FFF730FB1F20FFF71E
:100E100023FBA069012805D105480168012292043D
:100E20001143016038BD0000005C0040001002402A
:100E30000004014010B5C41DFF34FA340121E069FB
:100E400001F0E9FAE06901F0AEFA10BD10B5044610
:100E50008069002806D00748016906229143016194
:100E600000F02EFEFF34FF340234E06901F0BEFAD8
:100E700010BD000000ED00E0FF3010B5FF30023083
:100E8000C06901F0B9FA10BD0246FF32E132137AAF
:100E9000012B08D001231372002906D020300171E4
:100EA0000020107270470220704700688021403097
:100EB0008181F5E710B5872189000A580146FF3185
:100EC000ED31104601F0BDFA10BD00684030018BD5
:100ED0000122D203114301830020704710B504465C
:100EE000FF30FF300230C06901F000FBA06900282C
:100EF00004D00348016906221143016110BD0000BE
:100F000000ED00E0F8B505460068394CC00352D545
:100F1000E0690026C00007D4E16920040143E161D3
:100F2000E16901400126009132480168C90510D4E9
:100F30000168821511430160FFF734FA074604E0A7
:100F4000FFF730FAC01B642824D82A480068C0057F
:100F5000F6D5206A03273F02384020D0696839401F
:100F600081421CD0206A226AB843012109040A4345
:100F70002262226A8A4322622062C0070FD0FFF7F2
:100F800011FA009008E0FFF70DFA0099411A1A488B
:100F9000814201D90320F8BD206A8007F3D5206A79
:100FA0006968B84308432062002E04D0E16901203B
:100FB00000078143E1612878C00705D0206BA9684C
:100FC00080088000084320632878800605D5206BC0
:100FD00010218843E968084320632868800305D509
:100FE000206B802188432969084320630020F8BDD5
:100FF000001002400070004088130000F8B505465C
:1010000044480E460068C007C00FB0420AD24148AB
:10101000016849084900314301600068C007C00FFA
:10102000B0425CD128783C4C800705D56068F0213F
:101030008843A968084360602878C0073FD0686883
:10104000012813D02168022813D08907002946DA25
:1010500061688908890001436160FFF7A3F9696845
:10106000074601290DD0022917D024E02168890301
:10107000ECE78901EAE7FFF795F9C11B27488142B0
:1010800017D860680007800F0128F4D117E0FFF738
:1010900089F9C11B214881420BD860680007800F85
:1010A0000228F4D10BE0FFF77DF9C11B1B488142F8
:1010B00001D90320F8BD60680007800FF3D11548FF
:1010C0000168C907C90FB1420BD901684908490035
:1010D000314301600068C007C00FB04201D0012059
:1010E000F8BD2878400706D56068072109028843C3
:1010F000E9680843606000F01DF86168084A090665
:10110000090F515CC840074908600020FFF768F9E3
:101110000020F8BD002002400010024088130000AB
:10112000182900085400002001480068704700009A
:101130005400002030B514A30FCB89B06C460FC407
:1011400015A30FCB0FC418494A680C20144604405D
:101150001648042C03D04310082C02D0184609B0BE
:1011600030BD9402240F6D462C5DC96A04AD090799
:10117000090FD203695C920F022A00D01846FEF7CD
:10118000D5FF6043EBE700000203040506070809EA
:101190000A0B0C0D0E0F10100102030405060708C0
:1011A000090A0B0C0D0E0F10001002400024F40071
:1011B000FEB504460078D24DC00749D068680007E4
:1011C000800F012820D068680007800F022804D112
:1011D0006868C003800F022816D0012062680004EE
:1011E000012A18D08100002A01D0052A17D02A68C8
:1011F00082432A60286888432860606800281BD0E2
:10120000FFF7D0F8064613E02868800320D5606811
:10121000002876D01CE0296801432960EDE72A68A0
:101220000A432A60F7E7FFF7BDF8801B642869D8F6
:1012300028688003F7D50BE0FFF7B4F8064604E012
:10124000FFF7B0F8801B6428F1D828688003F7D432
:1012500020780126800700283DDA68680007800FA3
:1012600013D068680007800F022804D16868C003A3
:10127000800F012809D0E068002828681CD030437E
:101280002860FFF78FF807460BE0286880070BD52A
:10129000E068012835D107E0FFF784F8C01B022879
:1012A000C5D828688007F7D52868F82188432169C0
:1012B000C900084328600EE0400840002860FFF79E
:1012C00071F8074604E0FFF76DF8C01B0228AED89E
:1012D00028688007F7D42078000723D5E069002824
:1012E000686A10D030436862FFF75CF8074604E094
:1012F000FFF758F8C01B022899D8686A8007F7D50D
:1013000010E0FAE0A4E0400840006862FFF74AF805
:10131000074604E0FFF746F8C01B022887D8686A32
:101320008007F7D4207804274007002860DA0020DF
:101330000190E869C00008D4E969B8060143E96191
:10134000E96901400120009101906E480168C905DA
:1013500011D40168821511430160FFF723F8009052
:1013600005E0FFF71FF80099401A642870D8654817
:101370000068C005F5D5A06801280AD0002801D072
:10138000052810D0286A400840002862286AB8431F
:1013900001E0286A30432862A068002812D0FFF7D5
:1013A00001F800900AE0286A38432862F1E7FEF766
:1013B000F9FF0099411A5448814249D8286A8007A8
:1013C000F5D50DE0FEF7EEFF009006E0FEF7EAFF30
:1013D0000099411A4C4881423AD8286A8007F5D4CE
:1013E0000198002804D0E969012000078143E961E0
:1013F0002078C00635D5606901280CD0401D686B87
:1014000023D038436863686B400840006863FEF788
:10141000C9FF064622E0686B38436863686B304357
:101420006863FEF7BFFF064604E0FEF7BBFF801BC4
:1014300002285BD8686B8007F7D5686BF821884372
:10144000A169C900084368630BE0B8436863F4E727
:101450004CE0FEF7A7FF801B022847D8686B800787
:10146000F7D4206A002846D069680907890F022945
:1014700043D0012636060228286805D0B0432860EC
:10148000FEF790FF044633E0B0432860FEF78AFF82
:10149000074604E0FEF786FFC01B022826D828680E
:1014A0008001F7D4E86AE16A000900010843E862B4
:1014B000616AA06A084369687B22D20391430843AA
:1014C0006860286830432860FEF76CFF044604E03B
:1014D000FEF768FF001B022808D828688001F7D5AE
:1014E00009E0FEF75FFF001B022801D90320FEBDC3
:1014F00028688001F5D40020FEBD0120FEBD00005B
:10150000001002400070004088130000F8B504008D
:1015100007D0002625464035A662687F002802D005
:1015200005E00120F8BD2E77204600F04BF802239D
:101530006B77206801684022914301600721E068D1
:101540000902884201D9002201E0012212030F277B
:101550003F02B84202D0884200D0A662276B002F1B
:1015600005D1884201D9236301E001202063A168ED
:101570006068636908432169194308430123A1692D
:101580005B0219400843E1690843216A0843A16AE4
:10159000084321680860616B606AA36908431B0CFB
:1015A0000427E1683B401943084321681043486021
:1015B0002068C1697A029143C1612666012068777B
:1015C0000020F8BD00B500680D4987B0884215D1EC
:1015D0000C48826981140A43826180690840059041
:1015E000F02000900220019000210320039002913E
:1015F000049109206946C006FEF72AFE07B000BD27
:101600000030014000100240042204490428086907
:1016100002D09043086170471043FBE700E000E010
:1016200070470000094910B5401E884201D90120C9
:1016300010BD074C60610321081F00F053F8002023
:10164000A06107202061002010BD0000FFFFFF0007
:1016500000E000E010B5FFF7E3FF10BDFEE700007B
:1016600010B511480F490160FF210531416000218B
:101670000322816012020161C26001224161920471
:101680008261016218224162C26181620722C262E4
:10169000016308214163FFF739FF002800D0FEE70E
:1016A00010BD0000003001407001002010B5002284
:1016B0000749084800F00EFD0749064800F054FFAE
:1016C0000649044800F03FFB024800F09FFF10BDB0
:1016D0000C000020D4010020380100204000002030
:1016E000704700008307FF22DB0E9A408907090E2E
:1016F000994000280BDA0007000F083883080848D3
:101700009B001818C36993430B43C3617047830858
:1017100004489B001B1818689043084318607047E2
:1017200000ED00E000E400E0F0B585B004460020E4
:10173000694688802646203678E19A8917073F0F48
:1017400026D0B9000291425A9A80998809047DD521
:10175000BE490A400299425238461C2148430519A5
:10176000FF350935A87A0028206870D029788A00CA
:10177000825A52046CD55022125ACB00B449121826
:101780005918515A8905890D00917DD0EA88BDE02C
:101790009A89D20627D40188AE4A25461140018095
:1017A00020685021095A283508182978CA00A84904
:1017B0005118405A8005800D2064A16B0818A06361
:1017C00000212046FEF773FE30790028B4D0686906
:1017D0000028B1D1307980210843216840318881C7
:1017E0000020307122E12546FF35028809359A80B4
:1017F0009B881B0519D5098A09182878C2009448C6
:10180000001D1018085A294683059B0DAB61AA8854
:10181000E431206800F024F920688C4A01881140E6
:1018200001802046FFF746FB00E1694689880904EC
:10183000D8D58649864F0A40028020685021095A2F
:101840003F1D09182878C000C01902E085E03DE07E
:101850004FE0085A83059B0DAB6108D0AA8829691F
:10186000206800F0FDF8A969286940182861002166
:101870002046FEF728FE206801464030008A4018C6
:10188000C119E8683E2800E044E00AD9C202120CFF
:10189000C00601D1521E92B290020122D20310431F
:1018A00006E0C203120CC00701D0521C92B2900293
:1018B00008802168684A08881040012212035040BD
:1018C00052005040654A10430880AFE05021095A49
:1018D0000A182978CB005E49091D5918515A890503
:1018E000890D009121D0AA882969009B00F0B8F8E1
:1018F0001BE05022CB00125A55491218091D5918E5
:10190000515A8905890D009104D02A892969009BC3
:1019100000F0A6F8297820688A004E4B815A80335F
:1019200019404E4B403319438152A9690098081859
:10193000A861296900980A182A616B69002B03D0F5
:10194000E9680098814204D929782046FEF7BBFD5A
:1019500003E029782046FFF72FF8684680880006C4
:1019600064D51C204743206802993A4A415A3D19E0
:101970001140029A28358152A87A0028206811D097
:1019800029788A00825C52061ED55022125AC9005C
:1019900012182F480818105A83059B0DAB6124D0EC
:1019A000EA881EE05021095A09182878C200284800
:1019B0001018085A83059B0DAB6121D0AA882969AC
:1019C000206800F062F81BE05022125AC900121879
:1019D0001F48001D0818105A83059B0DAB6104D0E9
:1019E0002A892969206800F050F828782268800048
:1019F000184B115A80331940174BF13319431152C8
:101A000020685021095A09182878C2001048101877
:101A1000085A8005800DA86129690A182A616B6936
:101A20002978002B20460DD0FFF790F8206801465A
:101A300040318A886B469A81120400D57DE60020E9
:101A400005B0F0BDFEF733FDF0E700008F0F00009A
:101A5000020400000F8F00008FBF00008080000094
:101A6000101810B5012292025C088018002C07D0D3
:101A700002880A70120A4A70801C891C641EF7D101
:101A8000DA0701D00078087010BD101801225B1C25
:101A9000920210B55B088018002B08D04A780C78A9
:101AA000120222430280801C891C5B1EF6D110BDED
:101AB0007047704710B5FEF77BFCFFF7CBFD10BDFC
:101AC00010B596B0022001240890C003099000943C
:101AD000000101940A900B946846FFF769FB002807
:101AE00000D0FEE707200C9000200E9001460F90DA
:101AF0000D940CA8FFF782FA002800D0FEE7012021
:101B0000400410908020149010A8FFF7FBF90028E3
:101B100000D0FEE7FFF708FB7D21C900FEF706FBBA
:101B2000FFF780FD0420FFF76FFD00221146501ED5
:101B3000FEF79CFC16B010BD154801680122114348
:101B400001604168134A114041600168124A114026
:101B500001600168012292049143016041683F22C3
:101B6000120491434160C16A09090901C162016B14
:101B7000FF22943291430163016B80221143016380
:101B8000416B4908490041630021816070470000B2
:101B9000001002400CB8FF08FFFFF6FEFF30FF30D8
:101BA00002308069002806D0FF300021FF3002306B
:101BB0004161084670470220704770B5C21DFF3270
:101BC000FA321546946900F059FBE11DFF31FA31F4
:101BD000C860A869002808D04868E969CA688321F4
:101BE000890061189047002070BD022070BD70B55B
:101BF00004460025812100F099FA0121204600F0D9
:101C000095FA8221204600F091FAFF34FF34023425
:101C1000A069002807D0E06940688047A06900F00B
:101C200003FE0020A061284670BDFF3010B5FF30D4
:101C30001A300AC8002B0AD0CC1DFF34FA342078A1
:101C4000FF2804D09B6862789847FF20207000200E
:101C500010BD00000A21018000487047600000208C
:101C60004321018000487047B000002043210180DB
:101C7000004870476C0000204321018000487047F5
:101C8000F4000020F8B50446007C01260025760209
:101C9000002830D0402302228121204600F05AFB48
:101CA000402302220121204600F054FB0823032296
:101CB0008221204600F04EFB8720800000F0B6FD18
:101CC000E11DFF31FA31886100281CD00746C86940
:101CD00000688047FF370020FF3702377861B8611E
:101CE000207C7A68002810D040230121204600F093
:101CF00047FB2846F8BD334602228121204600F0EA
:101D000029FB3346CDE70125F3E73346EDE710B570
:101D10004321C9000958002913D0027C002A09D0A8
:101D2000FF31FF3102314A684023012100F028FBD6
:101D3000002010BDFF31FF31023101235B024A68F0
:101D4000F3E7022010BD02460220002904D0FF3232
:101D5000FF3202320020D1617047FF30FF30023085
:101D60008069FF30FF300230416000207047FF3053
:101D7000FF3002308069FF30FF3002300261816045
:101D80000020704770B50C46C11D0546FF31FA3181
:101D9000207860228E69024022D0202A28D1E28851
:101DA000002A16D0000607D5C96960788B683146CD
:101DB0009847E288314618E0F01DFF306178FA302C
:101DC0000170A1794170E2883146284600F050F850
:101DD0000EE0C96960788B6800222146984707E0C9
:101DE00060780A2804D103490122284600F05CF8F3
:101DF000002070BD5C00002010B54321C9000958C7
:101E0000002911D0FF31FF3102314A69002A01D087
:101E1000012010BD01224A610A8A93B28A68812199
:101E200000F06CFB002010BD022010BD10B5852213
:101E30009200125852689047002010BD134610B50A
:101E40000A46002100F09CFA002010BD134610B590
:101E50000A46002100F052FB002010BD10B50446D8
:101E6000802100F01DFB0021204600F019FB10BD71
:101E700010B5FF230324F5331C50C31DF9339A60BA
:101E8000DA6013460A46002100F07AFA002010BDFD
:101E900010B5FF210522F5310A5000231A461946D4
:101EA00000F06EFA002010BD10B5FF230224F533B8
:101EB0001C5082611346C2610A46002100F01EFBDD
:101EC000002010BD10B5FF210422F5310A50002377
:101ED0001A46194600F012FB002010BD10B50A4644
:101EE000024903A000F0D4F8004810BD38080020D3
:101EF00043444320436F6E666967000012200880E8
:101F0000004870472C00002010B50A46024903A083
:101F100000F0BEF8004810BD3808002043444320BC
:101F2000496E746572666163650000000420088074
:101F3000004870472800002010B50A46024903A057
:101F400000F0A6F8004810BD3808002053544D6931
:101F500063726F656C656374726F6E6963730000A2
:101F600010B50A46024903A000F092F8004810BDDF
:101F70003808002053544D3332205669727475610D
:101F80006C20436F6D506F727400000010B50A46EC
:101F9000024903A000F07CF8004810BD380800207A
:101FA00030303030303030303030314100000000DF
:101FB000F8B50D4604464988FF300A0AFF30023062
:101FC000130000F040FC084905091649493E4649FE
:101FD0000069237C02682AE0217C022640690029EE
:101FE00005D0C16A684688470146467040E0816A6C
:101FF000F8E7C9B20B0000F026FC0604080F13171F
:102000001E2F0069227C436802E00069227C8368FD
:1020100069461046984712E00069227CC368F7E7DA
:102020000069227C0369F3E70069237C4269694601
:102030001846904703E00069227C8369E8E701467F
:1020400016E0217C002907D14069416B684688472A
:10205000F5E7217C002904D029462046FFF7FEFE43
:10206000F8BD4069016B6846884707220146427007
:10207000684600880028F3D0EA88002AF0D082421F
:1020800000D90246684602802046FFF70DFFF8BDE2
:1020900070B5002300281CD00446002502E06D1C0A
:1020A000EDB2641C2678002EF9D16C00A41C1480BB
:1020B000CC5403225B1CCA5400245B1C06E0CA54A7
:1020C0005B1CDAB28C54521CD3B2401C0278002A3A
:1020D000F5D170BD10B5002813D0C31DFF33FA33FE
:1020E0005C69002C01D000245C61002900D01961DA
:1020F000FF210123FD310B54027000F0C7F80020CE
:1021000010BD022010BD10B5FF30FF30023000249A
:10211000006AFEF79BFA002806D0012801D00228A9
:1021200001D0022400E00124204610BD10B5FF308C
:10213000FF3002300024006AFEF7D4F9002806D0F0
:10214000012801D0022801D0022400E00124204609
:1021500010BDFEB50446FF30E51DE130FF35FA3510
:1021600013460190002908D068694269002A49D0C5
:102170000198007F032843D044E02646FF3681368D
:102180002046716F1430022934D1C26881680092F0
:10219000914207D9891A81608AB219462046FFF711
:1021A00055FE13E0406811460746FDF7BFFF0029C2
:1021B00013D10098874210D3B06F87420DD200220E
:1021C00011462046FFF742FE0020B06700231A4662
:1021D0001946204600F0D4F80CE06869C16800296F
:1021E00005D00198007F032801D12046884720466A
:1021F000FFF74EFE2878012804D10020287001E066
:10220000204690470020FEBD70B50546FF35E135FC
:102210002B46203316460446002907D058698269A8
:10222000002A29D0287F032824D025E0FF21F5317A
:10223000E01D0959FD3003291ED18268C1688A4218
:102240000BD9511A8160C068814200D301468AB21D
:1022500031462046FFF7F2FD0EE05869016900297A
:1022600004D0287F032801D1204688472046FFF765
:1022700029FE01E020469047002070BDFF3010B5D8
:10228000FF300230006AFEF73BFA10BD10B520495E
:10229000C41DC861FF341F49FA341F482162086019
:1022A000022208208A6048600A610020C86001227A
:1022B0008A61CA6108620846FEF746FD002804D01C
:1022C000FF213A3115A000F0BDFA00221823114673
:1022D000206AFEF7CFF8582300228021206AFEF7FB
:1022E000C9F8C02300228121206AFEF7C3F8FF232A
:1022F000113300220121206AFEF7BCF8FF230133CD
:1023000000228221206AFEF7B5F8002010BD0000EF
:102310001808002018060020005C00402E2E2F53C5
:1023200072632F757362645F636F6E662E63000065
:10233000FF30CA09FF3049060230490E1C23006AEB
:1023400059430818002A01D0203001E0FF30013045
:10235000807A704770B5FF301D46FF30023013465B
:102360000024006A2A46FEF7D5F9002806D0012885
:1023700001D0022801D0022400E00124204670BDD3
:1023800010B5FF30FF3002300024006AFEF714FB66
:10239000002806D0012801D0022801D0022400E044
:1023A0000124204610BD70B500220446402311468A
:1023B000FFF7D0FF4025FF20113005512B460022AA
:1023C00080212046FFF7C6FFFF200121FD30256256
:1023D0000155E01DFF30FA308169002904D04069C1
:1023E0002179426820469047002070BDFF30E130DF
:1023F000417F01770020704710B5FF21FD31095C56
:10240000032906D1852189000958C969002900D00E
:102410008847002010BD01740020704710B5FF30C0
:10242000FF3002300024006AFEF72EFD002806D09F
:10243000012801D0022801D0022400E00124204616
:1024400010BD70B504464120C0002018054600F0BC
:1024500068F82146FF3181310122084680304A6701
:10246000C2898A67007AC106C90E0AD001290DD037
:10247000022910D0C109C901204600F011F800203E
:1024800070BD2946204600F0C6F8F8E729462046E8
:1024900000F0ADF9F3E72946204600F033F9EEE706
:1024A00010B5FF30FF3002300024006AFEF704FB55
:1024B000002806D0012801D0022801D0022400E023
:1024C0000124204610BD10B5FF30FF30023000243B
:1024D000006AFEF7FAFC002806D0012801D0022885
:1024E00001D0022400E00124204610BDFF30E1307D
:1024F000017F4177042101770020704710B5FF303C
:10250000FF3002300024006AFEF720FB002806D0CE
:10251000012801D0022801D0022400E00124204635
:1025200010BD0A7802704A784270CB788A781B0214
:10253000D21842804B790A791B02D21882808A799C
:10254000C97909025118C180704700000278054915
:10255000312A01D101224A700078302801D10020AF
:10256000487070470000002002460020002904D077
:10257000FF32FF320232516170470220704710B5BE
:102580008522920012580224002A04D01268904733
:10259000002800D10024204610BD000070B50E4672
:1025A0008978194D04462970012904D931462046FD
:1025B000FFF754FC70BD2046FF30E130027F022A55
:1025C00015D0032AF2D1002917D0606888420AD0BA
:1025D000C1B22046FFF72AFC297861602046FFF748
:1025E000CEFF0228E2D02046FFF76CFC70BD002928
:1025F000F9D0032261600277F0E7022202772046D9
:102600006160FFF713FCEEE75800002010B5FFF7FC
:102610005AFF002010BDF8B500220092C61DFF36FB
:102620004C781746FA3632460125203A230000F04E
:102630000AF90A3C564150410906412B2841FFF74F
:10264000B7FC5DE004468888002818D1C8880028B7
:1026500015D1887817464606107F760E03280ED0CF
:10266000BE7731462046FFF7D9FE2046FFF72AFC09
:10267000002E02D00220387742E03D7740E020462D
:1026800018E0FFF78BFF3BE0CB88012B12D1127FC4
:10269000022A02D0032A0DD104E0012201460831AA
:1026A000876013E00122011D10E0127F022A04D08E
:1026B000032A02D0FFF7D2FB22E0C560716800292F
:1026C00001D00321C160014602220C31FFF7ECFB6F
:1026D00016E004464888012812D1756009E00446D6
:1026E000107F022801D00328C9D14888012807D1CA
:1026F000776070698268204690472046FFF7E2FBCA
:102700000098F8BDF8B504460D462878E61D400649
:10271000FF3600270979800FFA36012809D06A7838
:1027200030462038002A38D0012A1ED0032A3DD155
:1027300006E0706929468268204690470020F8BD6F
:10274000007F022817D003282CD16888002806D1E2
:10275000002904D0802902D02046FFF7A1FE70692D
:10276000294682682046904713E0007F022802D065
:10277000032817D104E0002918D080291AD115E0C8
:102780006888002812D1480603D02046FFF7BBFC1A
:10279000E5E72046FFF796FB08E0007F022807D018
:1027A00003280BD029462046FFF758FB3846F8BDD2
:1027B0004806FBD02046FFF773FEF7E7C80904D0B0
:1027C0004806400D0519143504E04806400D05196A
:1027D000FF3505352046FFF7ABFD002800D001206E
:1027E0002860022229462046FFF75EFBDEE770B52F
:1027F0000446FF30E130007F0D4603280FD12879D1
:1028000001280CD885208000005982682046904716
:10281000E888002806D12046FFF754FB02E0204656
:10282000FFF71CFB002070BD704700000048704798
:10283000F803002010B50248FEF700FA10BD0000B2
:1028400018060020FEE730B47446641E2578641C28
:10285000AB4200D21D46635D5B00E31830BC1847F5
:1028600002E008C8121F08C1002AFAD17047704759
:10287000002001E001C1121F002AFBD170470000B7
:1028800086B0FDF79DFDFFF71BF921484269012144
:1028900089050A43426142690A4005924269491129
:1028A0000A434261406909250840ED06059000226F
:1028B00001212846FDF770FD0120009001900020C5
:1028C0000290039069462846FDF7C2FCFEF7EEFE33
:1028D000FEF7C6FE0F4C607821788842FBD00028B6
:1028E00009D0012810D1012211462846FDF754FDD8
:1028F0000A21606806E0002201212846FDF74CFD10
:102900000C21A068FDF78CFC60782070E3E70000E4
:102910000010024000000020000000000000000045
:10292000010203040607080950696E207365740DDF
:102930000A00000050696E2072657365740D0A000C
:102940006029000800000020700100007C010008E0
:10295000242A000870010020981300007028000845
:10296000411328291B08340413FD1E14082D1F1BB6
:102970000839041A61041A8D041ADD141A0908179B
:102980000403090412011402020216408004405795
:1029900026020102030113DD011B08D7041AD30428
:1029A000130102520893127A130A0632021A402BBC
:1029B000111C090243371125C03209041B01020B07
:1029C0001305241610010524011009010424020234
:1029D000052406170107058203081C1009046D323F
:1029E0000A1B0705571A02072A81070938442A409B
:1029F000072A8107112B0907440A2204440A16FFFB
:102A00004413851C1408EF1B4C08851DF41A2B1069
:102A10001A9D101ABB04C11A6D181A61041A7904A0
:042A20001A5504003F
:04000005080000C12E
:00000001FF
